{
  "contractName": "Products",
  "abi": [
    {
      "inputs": [],
      "name": "currentOwner",
      "outputs": [
        {
          "internalType": "address",
          "name": "",
          "type": "address"
        }
      ],
      "stateMutability": "view",
      "type": "function",
      "constant": true
    },
    {
      "inputs": [],
      "name": "newOwner",
      "outputs": [
        {
          "internalType": "address",
          "name": "",
          "type": "address"
        }
      ],
      "stateMutability": "view",
      "type": "function",
      "constant": true
    },
    {
      "inputs": [],
      "name": "price",
      "outputs": [
        {
          "internalType": "uint256",
          "name": "",
          "type": "uint256"
        }
      ],
      "stateMutability": "view",
      "type": "function",
      "constant": true
    },
    {
      "inputs": [],
      "name": "productName",
      "outputs": [
        {
          "internalType": "string",
          "name": "",
          "type": "string"
        }
      ],
      "stateMutability": "view",
      "type": "function",
      "constant": true
    },
    {
      "inputs": [
        {
          "internalType": "uint256",
          "name": "",
          "type": "uint256"
        }
      ],
      "name": "products",
      "outputs": [
        {
          "internalType": "string",
          "name": "name",
          "type": "string"
        },
        {
          "internalType": "string",
          "name": "purpose",
          "type": "string"
        },
        {
          "internalType": "uint256",
          "name": "price",
          "type": "uint256"
        }
      ],
      "stateMutability": "view",
      "type": "function",
      "constant": true
    },
    {
      "inputs": [
        {
          "internalType": "string",
          "name": "_name",
          "type": "string"
        },
        {
          "internalType": "string",
          "name": "_purpose",
          "type": "string"
        },
        {
          "internalType": "uint256",
          "name": "_price",
          "type": "uint256"
        }
      ],
      "name": "addProduct",
      "outputs": [],
      "stateMutability": "nonpayable",
      "type": "function"
    },
    {
      "inputs": [],
      "name": "allProducts",
      "outputs": [
        {
          "components": [
            {
              "internalType": "string",
              "name": "name",
              "type": "string"
            },
            {
              "internalType": "string",
              "name": "purpose",
              "type": "string"
            },
            {
              "internalType": "uint256",
              "name": "price",
              "type": "uint256"
            }
          ],
          "internalType": "struct Products.Product[]",
          "name": "",
          "type": "tuple[]"
        }
      ],
      "stateMutability": "view",
      "type": "function",
      "constant": true
    }
  ],
  "bytecode": "0x608060405234801561001057600080fd5b50610f3e806100206000396000f3fe608060405234801561001057600080fd5b506004361061007d5760003560e01c8063a035b1fe1161005b578063a035b1fe146100f0578063b387ef921461010e578063d4ee1d901461012c578063f28ea1c11461014a5761007d565b80637acc0b20146100825780637f7650eb146100b457806391295241146100d2575b600080fd5b61009c60048036038101906100979190610686565b610166565b6040516100ab93929190610752565b60405180910390f35b6100bc6102b0565b6040516100c99190610797565b60405180910390f35b6100da61033e565b6040516100e7919061092b565b60405180910390f35b6100f8610540565b604051610105919061094d565b60405180910390f35b610116610546565b60405161012391906109a9565b60405180910390f35b61013461056c565b60405161014191906109a9565b60405180910390f35b610164600480360381019061015f9190610af9565b610592565b005b6000818154811061017657600080fd5b906000526020600020906003020160009150905080600001805461019990610bb3565b80601f01602080910402602001604051908101604052809291908181526020018280546101c590610bb3565b80156102125780601f106101e757610100808354040283529160200191610212565b820191906000526020600020905b8154815290600101906020018083116101f557829003601f168201915b50505050509080600101805461022790610bb3565b80601f016020809104026020016040519081016040528092919081815260200182805461025390610bb3565b80156102a05780601f10610275576101008083540402835291602001916102a0565b820191906000526020600020905b81548152906001019060200180831161028357829003601f168201915b5050505050908060020154905083565b600180546102bd90610bb3565b80601f01602080910402602001604051908101604052809291908181526020018280546102e990610bb3565b80156103365780601f1061030b57610100808354040283529160200191610336565b820191906000526020600020905b81548152906001019060200180831161031957829003601f168201915b505050505081565b60606000808054905067ffffffffffffffff8111156103605761035f6109ce565b5b60405190808252806020026020018201604052801561039957816020015b61038661061b565b81526020019060019003908161037e5790505b50905060005b60008054905081101561053857600081815481106103c0576103bf610be4565b5b90600052602060002090600302016040518060600160405290816000820180546103e990610bb3565b80601f016020809104026020016040519081016040528092919081815260200182805461041590610bb3565b80156104625780601f1061043757610100808354040283529160200191610462565b820191906000526020600020905b81548152906001019060200180831161044557829003601f168201915b5050505050815260200160018201805461047b90610bb3565b80601f01602080910402602001604051908101604052809291908181526020018280546104a790610bb3565b80156104f45780601f106104c9576101008083540402835291602001916104f4565b820191906000526020600020905b8154815290600101906020018083116104d757829003601f168201915b5050505050815260200160028201548152505082828151811061051a57610519610be4565b5b6020026020010181905250808061053090610c42565b91505061039f565b508091505090565b60025481565b600360009054906101000a900473ffffffffffffffffffffffffffffffffffffffff1681565b600460009054906101000a900473ffffffffffffffffffffffffffffffffffffffff1681565b60006040518060600160405280858152602001848152602001838152509050600081908060018154018082558091505060019003906000526020600020906003020160009091909190915060008201518160000190816105f29190610e36565b5060208201518160010190816106089190610e36565b5060408201518160020155505050505050565b60405180606001604052806060815260200160608152602001600081525090565b6000604051905090565b600080fd5b600080fd5b6000819050919050565b61066381610650565b811461066e57600080fd5b50565b6000813590506106808161065a565b92915050565b60006020828403121561069c5761069b610646565b5b60006106aa84828501610671565b91505092915050565b600081519050919050565b600082825260208201905092915050565b60005b838110156106ed5780820151818401526020810190506106d2565b60008484015250505050565b6000601f19601f8301169050919050565b6000610715826106b3565b61071f81856106be565b935061072f8185602086016106cf565b610738816106f9565b840191505092915050565b61074c81610650565b82525050565b6000606082019050818103600083015261076c818661070a565b90508181036020830152610780818561070a565b905061078f6040830184610743565b949350505050565b600060208201905081810360008301526107b1818461070a565b905092915050565b600081519050919050565b600082825260208201905092915050565b6000819050602082019050919050565b600082825260208201905092915050565b6000610801826106b3565b61080b81856107e5565b935061081b8185602086016106cf565b610824816106f9565b840191505092915050565b61083881610650565b82525050565b6000606083016000830151848203600086015261085b82826107f6565b9150506020830151848203602086015261087582826107f6565b915050604083015161088a604086018261082f565b508091505092915050565b60006108a1838361083e565b905092915050565b6000602082019050919050565b60006108c1826107b9565b6108cb81856107c4565b9350836020820285016108dd856107d5565b8060005b8581101561091957848403895281516108fa8582610895565b9450610905836108a9565b925060208a019950506001810190506108e1565b50829750879550505050505092915050565b6000602082019050818103600083015261094581846108b6565b905092915050565b60006020820190506109626000830184610743565b92915050565b600073ffffffffffffffffffffffffffffffffffffffff82169050919050565b600061099382610968565b9050919050565b6109a381610988565b82525050565b60006020820190506109be600083018461099a565b92915050565b600080fd5b600080fd5b7f4e487b7100000000000000000000000000000000000000000000000000000000600052604160045260246000fd5b610a06826106f9565b810181811067ffffffffffffffff82111715610a2557610a246109ce565b5b80604052505050565b6000610a3861063c565b9050610a4482826109fd565b919050565b600067ffffffffffffffff821115610a6457610a636109ce565b5b610a6d826106f9565b9050602081019050919050565b82818337600083830152505050565b6000610a9c610a9784610a49565b610a2e565b905082815260208101848484011115610ab857610ab76109c9565b5b610ac3848285610a7a565b509392505050565b600082601f830112610ae057610adf6109c4565b5b8135610af0848260208601610a89565b91505092915050565b600080600060608486031215610b1257610b11610646565b5b600084013567ffffffffffffffff811115610b3057610b2f61064b565b5b610b3c86828701610acb565b935050602084013567ffffffffffffffff811115610b5d57610b5c61064b565b5b610b6986828701610acb565b9250506040610b7a86828701610671565b9150509250925092565b7f4e487b7100000000000000000000000000000000000000000000000000000000600052602260045260246000fd5b60006002820490506001821680610bcb57607f821691505b602082108103610bde57610bdd610b84565b5b50919050565b7f4e487b7100000000000000000000000000000000000000000000000000000000600052603260045260246000fd5b7f4e487b7100000000000000000000000000000000000000000000000000000000600052601160045260246000fd5b6000610c4d82610650565b91507fffffffffffffffffffffffffffffffffffffffffffffffffffffffffffffffff8203610c7f57610c7e610c13565b5b600182019050919050565b60008190508160005260206000209050919050565b60006020601f8301049050919050565b600082821b905092915050565b600060088302610cec7fffffffffffffffffffffffffffffffffffffffffffffffffffffffffffffffff82610caf565b610cf68683610caf565b95508019841693508086168417925050509392505050565b6000819050919050565b6000610d33610d2e610d2984610650565b610d0e565b610650565b9050919050565b6000819050919050565b610d4d83610d18565b610d61610d5982610d3a565b848454610cbc565b825550505050565b600090565b610d76610d69565b610d81818484610d44565b505050565b5b81811015610da557610d9a600082610d6e565b600181019050610d87565b5050565b601f821115610dea57610dbb81610c8a565b610dc484610c9f565b81016020851015610dd3578190505b610de7610ddf85610c9f565b830182610d86565b50505b505050565b600082821c905092915050565b6000610e0d60001984600802610def565b1980831691505092915050565b6000610e268383610dfc565b9150826002028217905092915050565b610e3f826106b3565b67ffffffffffffffff811115610e5857610e576109ce565b5b610e628254610bb3565b610e6d828285610da9565b600060209050601f831160018114610ea05760008415610e8e578287015190505b610e988582610e1a565b865550610f00565b601f198416610eae86610c8a565b60005b82811015610ed657848901518255600182019150602085019450602081019050610eb1565b86831015610ef35784890151610eef601f891682610dfc565b8355505b6001600288020188555050505b50505050505056fea2646970667358221220f8ca8f0bde4f39bad7a947d9b1d9f423cda1112e7d5a41c36fdc677a57048ae364736f6c63430008110033",
  "immutableReferences": {},
  "source": "// SPDX-License-Identifier: MIT\r\npragma solidity >=0.4.22 <0.9.0;\r\n\r\ncontract Products {\r\n\r\n  struct Product {\r\n    string name;\r\n    string purpose;\r\n    uint price;\r\n  }\r\n\r\n  Product[] public products;\r\n\r\n  string public productName;\r\n  uint256 public price;\r\n  address public currentOwner;\r\n  address public newOwner;\r\n\r\n  function addProduct(string memory _name, string memory _purpose, uint _price) public {\r\n    Product memory productIdea = Product(_name, _purpose, _price);\r\n    products.push(productIdea);\r\n  }\r\n\r\n  function allProducts() public view returns (Product[] memory) {\r\n    Product[] memory result = new Product[](products.length);\r\n\r\n      for (uint i = 0; i < products.length; i++) {\r\n      result[i] = products[i];\r\n    }\r\n\r\n    // Gib das neue Array zurck\r\n    return result;\r\n\r\n  }\r\n\r\n}",
  "sourcePath": "C:\\Users\\kurzt\\Desktop\\product-contract\\Products\\contracts\\Products.sol",
  "compiler": {
    "name": "solc",
    "version": "0.8.17+commit.8df45f5f.Emscripten.clang"
  },
  "schemaVersion": "3.4.11",
  "updatedAt": "2022-12-11T11:54:14.611Z",
  "networkType": "ethereum",
  "devdoc": {
    "kind": "dev",
    "methods": {},
    "version": 1
  },
  "userdoc": {
    "kind": "user",
    "methods": {},
    "version": 1
  }
}