{
  "contractName": "RealEstate",
  "abi": [
    {
      "inputs": [
        {
          "internalType": "string",
          "name": "_name",
          "type": "string"
        },
        {
          "internalType": "string",
          "name": "_estateAddress",
          "type": "string"
        },
        {
          "internalType": "uint256",
          "name": "_quadratmeter",
          "type": "uint256"
        }
      ],
      "name": "createEstate",
      "outputs": [],
      "stateMutability": "nonpayable",
      "type": "function"
    },
    {
      "inputs": [
        {
          "internalType": "uint256",
          "name": "_estateId",
          "type": "uint256"
        },
        {
          "internalType": "address",
          "name": "_newOwner",
          "type": "address"
        }
      ],
      "name": "sellEstate",
      "outputs": [],
      "stateMutability": "nonpayable",
      "type": "function"
    },
    {
      "inputs": [],
      "name": "allRealEstates",
      "outputs": [
        {
          "components": [
            {
              "internalType": "uint256",
              "name": "id",
              "type": "uint256"
            },
            {
              "internalType": "string",
              "name": "name",
              "type": "string"
            },
            {
              "internalType": "uint256",
              "name": "quadratmeter",
              "type": "uint256"
            },
            {
              "internalType": "string",
              "name": "estateAddress",
              "type": "string"
            },
            {
              "internalType": "address",
              "name": "owner",
              "type": "address"
            }
          ],
          "internalType": "struct RealEstate.Estate[]",
          "name": "",
          "type": "tuple[]"
        }
      ],
      "stateMutability": "view",
      "type": "function",
      "constant": true
    },
    {
      "inputs": [
        {
          "internalType": "uint256",
          "name": "_id",
          "type": "uint256"
        }
      ],
      "name": "getRealEstate",
      "outputs": [
        {
          "internalType": "address",
          "name": "",
          "type": "address"
        },
        {
          "internalType": "string",
          "name": "",
          "type": "string"
        },
        {
          "internalType": "uint256",
          "name": "",
          "type": "uint256"
        },
        {
          "internalType": "string",
          "name": "",
          "type": "string"
        }
      ],
      "stateMutability": "view",
      "type": "function",
      "constant": true
    }
  ],
  "bytecode": "0x608060405234801561001057600080fd5b50611176806100206000396000f3fe608060405234801561001057600080fd5b506004361061004c5760003560e01c80635298cf27146100515780635b520e131461006d57806377ac95181461008b578063db2dae0e146100be575b600080fd5b61006b60048036038101906100669190610833565b6100da565b005b6100756101d9565b6040516100829190610a60565b60405180910390f35b6100a560048036038101906100a09190610a82565b61043b565b6040516100b59493929190610b17565b60405180910390f35b6100d860048036038101906100d39190610c9f565b610620565b005b60008083815481106100ef576100ee610d2a565b5b906000526020600020906005020190503373ffffffffffffffffffffffffffffffffffffffff168160040160009054906101000a900473ffffffffffffffffffffffffffffffffffffffff1673ffffffffffffffffffffffffffffffffffffffff1614610191576040517f08c379a000000000000000000000000000000000000000000000000000000000815260040161018890610dcb565b60405180910390fd5b818160040160006101000a81548173ffffffffffffffffffffffffffffffffffffffff021916908373ffffffffffffffffffffffffffffffffffffffff160217905550505050565b60606000808054905067ffffffffffffffff8111156101fb576101fa610b74565b5b60405190808252806020026020018201604052801561023457816020015b610221610746565b8152602001906001900390816102195790505b50905060005b600080549050811015610433576000818154811061025b5761025a610d2a565b5b90600052602060002090600502016040518060a00160405290816000820154815260200160018201805461028e90610e1a565b80601f01602080910402602001604051908101604052809291908181526020018280546102ba90610e1a565b80156103075780601f106102dc57610100808354040283529160200191610307565b820191906000526020600020905b8154815290600101906020018083116102ea57829003601f168201915b505050505081526020016002820154815260200160038201805461032a90610e1a565b80601f016020809104026020016040519081016040528092919081815260200182805461035690610e1a565b80156103a35780601f10610378576101008083540402835291602001916103a3565b820191906000526020600020905b81548152906001019060200180831161038657829003601f168201915b505050505081526020016004820160009054906101000a900473ffffffffffffffffffffffffffffffffffffffff1673ffffffffffffffffffffffffffffffffffffffff1673ffffffffffffffffffffffffffffffffffffffff168152505082828151811061041557610414610d2a565b5b6020026020010181905250808061042b90610e7a565b91505061023a565b508091505090565b60006060600060606000858154811061045757610456610d2a565b5b906000526020600020906005020160040160009054906101000a900473ffffffffffffffffffffffffffffffffffffffff166000868154811061049d5761049c610d2a565b5b9060005260206000209060050201600101600087815481106104c2576104c1610d2a565b5b906000526020600020906005020160020154600088815481106104e8576104e7610d2a565b5b906000526020600020906005020160030182805461050590610e1a565b80601f016020809104026020016040519081016040528092919081815260200182805461053190610e1a565b801561057e5780601f106105535761010080835404028352916020019161057e565b820191906000526020600020905b81548152906001019060200180831161056157829003601f168201915b5050505050925080805461059190610e1a565b80601f01602080910402602001604051908101604052809291908181526020018280546105bd90610e1a565b801561060a5780601f106105df5761010080835404028352916020019161060a565b820191906000526020600020905b8154815290600101906020018083116105ed57829003601f168201915b5050505050905093509350935093509193509193565b610628610746565b6000805490508160000181815250508381602001819052508181604001818152505082816060018190525033816080019073ffffffffffffffffffffffffffffffffffffffff16908173ffffffffffffffffffffffffffffffffffffffff168152505060008190806001815401808255809150506001900390600052602060002090600502016000909190919091506000820151816000015560208201518160010190816106d6919061106e565b506040820151816002015560608201518160030190816106f6919061106e565b5060808201518160040160006101000a81548173ffffffffffffffffffffffffffffffffffffffff021916908373ffffffffffffffffffffffffffffffffffffffff160217905550505050505050565b6040518060a0016040528060008152602001606081526020016000815260200160608152602001600073ffffffffffffffffffffffffffffffffffffffff1681525090565b6000604051905090565b600080fd5b600080fd5b6000819050919050565b6107b28161079f565b81146107bd57600080fd5b50565b6000813590506107cf816107a9565b92915050565b600073ffffffffffffffffffffffffffffffffffffffff82169050919050565b6000610800826107d5565b9050919050565b610810816107f5565b811461081b57600080fd5b50565b60008135905061082d81610807565b92915050565b6000806040838503121561084a57610849610795565b5b6000610858858286016107c0565b92505060206108698582860161081e565b9150509250929050565b600081519050919050565b600082825260208201905092915050565b6000819050602082019050919050565b6108a88161079f565b82525050565b600081519050919050565b600082825260208201905092915050565b60005b838110156108e85780820151818401526020810190506108cd565b60008484015250505050565b6000601f19601f8301169050919050565b6000610910826108ae565b61091a81856108b9565b935061092a8185602086016108ca565b610933816108f4565b840191505092915050565b610947816107f5565b82525050565b600060a083016000830151610965600086018261089f565b506020830151848203602086015261097d8282610905565b9150506040830151610992604086018261089f565b50606083015184820360608601526109aa8282610905565b91505060808301516109bf608086018261093e565b508091505092915050565b60006109d6838361094d565b905092915050565b6000602082019050919050565b60006109f682610873565b610a00818561087e565b935083602082028501610a128561088f565b8060005b85811015610a4e5784840389528151610a2f85826109ca565b9450610a3a836109de565b925060208a01995050600181019050610a16565b50829750879550505050505092915050565b60006020820190508181036000830152610a7a81846109eb565b905092915050565b600060208284031215610a9857610a97610795565b5b6000610aa6848285016107c0565b91505092915050565b610ab8816107f5565b82525050565b600082825260208201905092915050565b6000610ada826108ae565b610ae48185610abe565b9350610af48185602086016108ca565b610afd816108f4565b840191505092915050565b610b118161079f565b82525050565b6000608082019050610b2c6000830187610aaf565b8181036020830152610b3e8186610acf565b9050610b4d6040830185610b08565b8181036060830152610b5f8184610acf565b905095945050505050565b600080fd5b600080fd5b7f4e487b7100000000000000000000000000000000000000000000000000000000600052604160045260246000fd5b610bac826108f4565b810181811067ffffffffffffffff82111715610bcb57610bca610b74565b5b80604052505050565b6000610bde61078b565b9050610bea8282610ba3565b919050565b600067ffffffffffffffff821115610c0a57610c09610b74565b5b610c13826108f4565b9050602081019050919050565b82818337600083830152505050565b6000610c42610c3d84610bef565b610bd4565b905082815260208101848484011115610c5e57610c5d610b6f565b5b610c69848285610c20565b509392505050565b600082601f830112610c8657610c85610b6a565b5b8135610c96848260208601610c2f565b91505092915050565b600080600060608486031215610cb857610cb7610795565b5b600084013567ffffffffffffffff811115610cd657610cd561079a565b5b610ce286828701610c71565b935050602084013567ffffffffffffffff811115610d0357610d0261079a565b5b610d0f86828701610c71565b9250506040610d20868287016107c0565b9150509250925092565b7f4e487b7100000000000000000000000000000000000000000000000000000000600052603260045260246000fd5b7f53656c6c206e6f7420706f737369626c652c20796f7520617265206e6f74207460008201527f6865206f776e65722e0000000000000000000000000000000000000000000000602082015250565b6000610db5602983610abe565b9150610dc082610d59565b604082019050919050565b60006020820190508181036000830152610de481610da8565b9050919050565b7f4e487b7100000000000000000000000000000000000000000000000000000000600052602260045260246000fd5b60006002820490506001821680610e3257607f821691505b602082108103610e4557610e44610deb565b5b50919050565b7f4e487b7100000000000000000000000000000000000000000000000000000000600052601160045260246000fd5b6000610e858261079f565b91507fffffffffffffffffffffffffffffffffffffffffffffffffffffffffffffffff8203610eb757610eb6610e4b565b5b600182019050919050565b60008190508160005260206000209050919050565b60006020601f8301049050919050565b600082821b905092915050565b600060088302610f247fffffffffffffffffffffffffffffffffffffffffffffffffffffffffffffffff82610ee7565b610f2e8683610ee7565b95508019841693508086168417925050509392505050565b6000819050919050565b6000610f6b610f66610f618461079f565b610f46565b61079f565b9050919050565b6000819050919050565b610f8583610f50565b610f99610f9182610f72565b848454610ef4565b825550505050565b600090565b610fae610fa1565b610fb9818484610f7c565b505050565b5b81811015610fdd57610fd2600082610fa6565b600181019050610fbf565b5050565b601f82111561102257610ff381610ec2565b610ffc84610ed7565b8101602085101561100b578190505b61101f61101785610ed7565b830182610fbe565b50505b505050565b600082821c905092915050565b600061104560001984600802611027565b1980831691505092915050565b600061105e8383611034565b9150826002028217905092915050565b611077826108ae565b67ffffffffffffffff8111156110905761108f610b74565b5b61109a8254610e1a565b6110a5828285610fe1565b600060209050601f8311600181146110d857600084156110c6578287015190505b6110d08582611052565b865550611138565b601f1984166110e686610ec2565b60005b8281101561110e578489015182556001820191506020850194506020810190506110e9565b8683101561112b5784890151611127601f891682611034565b8355505b6001600288020188555050505b50505050505056fea2646970667358221220d99ae0e1ea1f300cbd92205025729472e60f98f056e783504ea2eda8a990c25864736f6c63430008110033",
  "immutableReferences": {},
  "source": "// SPDX-License-Identifier: MIT\r\npragma solidity >=0.4.22 <0.9.0;\r\n\r\ncontract RealEstate {\r\n\r\n  struct Estate {\r\n      uint id;\r\n      string name;\r\n      uint quadratmeter;\r\n      string estateAddress;\r\n      address owner;\r\n  }\r\n\r\n  Estate[] estate;\r\n\r\n\r\n  function createEstate(string memory _name, string memory _estateAddress, uint _quadratmeter) public{\r\n\r\n      Estate memory newEstate;\r\n\r\n      newEstate.id = estate.length;\r\n      newEstate.name = _name;\r\n      newEstate.quadratmeter = _quadratmeter;\r\n      newEstate.estateAddress = _estateAddress;\r\n      newEstate.owner = msg.sender;\r\n\r\n      estate.push(newEstate);\r\n  }\r\n\r\n  function sellEstate(uint _estateId, address _newOwner) public {\r\n    Estate storage estateSell = estate[_estateId];\r\n\r\n    require(estateSell.owner == msg.sender, \"Sell not possible, you are not the owner.\");\r\n\r\n    estateSell.owner = _newOwner;\r\n  }\r\n\r\n  function allRealEstates() public view returns (Estate[] memory) {\r\n    Estate[] memory result = new Estate[](estate.length);\r\n\r\n      for (uint i = 0; i < estate.length; i++) {\r\n      result[i] = estate[i];\r\n    }\r\n\r\n    return result;\r\n\r\n  }\r\n\r\n  function getRealEstate(uint _id) public view returns (address, string memory, uint, string memory) {\r\n      return (\r\n            estate[_id].owner, \r\n            estate[_id].name, \r\n            estate[_id].quadratmeter,\r\n            estate[_id].estateAddress);\r\n  }\r\n\r\n}",
  "sourcePath": "C:\\Users\\kurzt\\Desktop\\product-contract\\RealEstate\\contracts\\RealEstate.sol",
  "compiler": {
    "name": "solc",
    "version": "0.8.17+commit.8df45f5f.Emscripten.clang"
  },
  "schemaVersion": "3.4.11",
  "updatedAt": "2022-12-11T11:02:27.490Z",
  "networkType": "ethereum",
  "devdoc": {
    "kind": "dev",
    "methods": {},
    "version": 1
  },
  "userdoc": {
    "kind": "user",
    "methods": {},
    "version": 1
  }
}